:1000000045C0000060C000005EC000005CC0000091
:100010005AC0000058C0000056C0000054C0000084
:1000200052C0000050C000004EC000004CC0000094
:100030004AC0000048C0000046C00000A7C0000041
:10004000C3C0000040C000003EC000003CC0000033
:100050003AC0000038C0000036C0000034C00000C4
:1000600032C0000030C000002EC000002CC00000D4
:100070002AC0000028C0000026C0000024C00000E4
:1000800022C0000020C000001EC0000011241FBEBE
:10009000CFEFD0E1DEBFCDBF11E0A0E0B1E0E6E4FC
:1000A000F2E000E00BBF02C007900D92A231B10751
:1000B000D9F721E0A2E1B1E001C01D92A631B2075B
:1000C000E1F7A0D0BEC09CCF2DEC829F212D112442
:1000D000269526952695322F330F932F990F990F3A
:1000E000930F482F491B80E090E01BC03EE035BBDA
:1000F000E22FF0E0E050FF4F30813BBBE6E6FEE050
:100100003197F1F700003DE035BBE42FF0E0E0501F
:10011000FF4F30813BBBE6E6FEE03197F1F7000090
:1001200001968530910514F308952DEC829F212DC1
:100130001124269526952695322F330F932F990F4C
:10014000990F930F482F491B80E090E01BC03BE0C4
:1001500035BBE22FF0E0E050FF4F30813BBBE6E6DD
:10016000FEE03197F1F7000037E035BBE42FF0E017
:10017000E050FF4F30813BBBE6E6FEE03197F1F700
:10018000000001968530910514F308951F920F9297
:100190000FB60F9211248F93809114018F5F80937B
:1001A00014018C3158F010921401809115018F5F69
:1001B00080931501843610F0109215018F910F90E5
:1001C0000FBE0F901F9018951F920F920FB60F92AF
:1001D00011248F93809113018F5F809313018833D3
:1001E00058F010921301809112018F5F80931201D9
:1001F000843610F0109212018F910F900FBE0F9065
:100200001F90189587B3806187BB83B7886483BFCD
:1002100083B7806383BF83B7876083BF87B78360FB
:1002200087BF9FEF9ABB8FE084BB9BBB85BB86E6F5
:1002300081BF78948091120178DF8091150144DFAD
:06024000F9CFF894FFCF96
:100246003F065B4F666D7C077F6F777C395E797101
:0202560008801E
:00000001FF
