S011000054696D65725F4354432E73726563D9
S113000045C0000060C000005EC000005CC000008D
S11300105AC0000058C0000056C0000054C0000080
S113002052C00000EFC000004EC000004CC00000F1
S11300304AC0000048C0000046C0000044C00000A0
S113004042C0000040C000003EC000003CC00000B0
S11300503AC0000038C0000036C0000034C00000C0
S113006032C0000030C000002EC000002CC00000D0
S11300702AC0000028C0000026C0000024C00000E0
S113008022C0000020C000001EC0000011241FBEBA
S1130090CFEFD0E1DEBFCDBF11E0A0E0B1E0EAECEC
S11300A0F2E000E00BBF02C007900D92A231B1074D
S11300B0D9F721E0A2E1B1E001C01D92A631B20757
S11300C0E1F7D4D000C19CCF0F931F93CF93DF935C
S11300D0AC01403187E2580708F08FC0FA01F69569
S11300E0E795F695E795F695E7959F01A5ECB0E2BF
S11300F0DBD0EC01D295C295CF70CD27DF70CD2730
S113010028EE33E0C29FC001C39F900DD29F900D93
S113011011249A01281B390B369527953695279576
S1130120ABE7B4E1C1D08C01169507959A013695D9
S1130130279536952795B8D0FC01F695E79524E6E2
S11301402E9FC0012F9F900D1124FA01E81BF90B7B
S11301509F01ADECBCECA8D0AC01569547955695E3
S11301604795569547959A01220F331FCA01880F68
S1130170991F880F991F880F991F820F931F9F0142
S1130180281B390B80E090E035C06EE065BBFE01B2
S1130190FF27E050FF4F60816BBBE6E6FEE031973E
S11301A0F1F700006DE065BBF801FF27E050FF4F59
S11301B060816BBBE6E6FEE03197F1F700006BE08F
S11301C065BBFA01FF27E050FF4F60816BBBE6E699
S11301D0FEE03197F1F7000067E065BBF901FF2706
S11301E0E050FF4F60816BBBE6E6FEE03197F1F72C
S11301F0000001968D37910544F2DF91CF911F9154
S11302000F9108951F920F920FB60F9211242F93FE
S11302108F939F93809112019091130183369105DE
S1130220A0F0109213011092120180911401909188
S11302301501019690931501809314018031974222
S113024020F01092150110921401809112019091E6
S11302501301019690931301809312019F918F9142
S11302602F910F900FBE0F901F90189587B3806841
S113027087BB85B5856085BD85B5886085BD85B539
S1130280806185BD80E983BD8AB38FEF8ABB84B367
S11302908F6084BB87B7806887BF7894809114018E
S11302A09091150111DFFACFA29FB001B39FC00155
S11302B0A39F700D811D1124911DB29F700D811D8E
S10D02C01124911D0895F894FFCF56
S11302CA3F065B4F666D7C077F6F777C395E797179
S10502DA088096
S9030000FC
