S00D000054696D65722E7372656316
S113000045C0000060C000005EC000005CC000008D
S11300105AC0000058C0000056C0000054C0000080
S113002052C0000050C000004EC000004CC0000090
S11300304AC0000048C0000046C0000044C00000A0
S113004042C0000040C000003EC000003CC00000B0
S11300503AC0000038C0000036C0000034C00000C0
S113006032C0000030C000002EC000002CC00000D0
S11300702AC0000028C0000026C0000024C00000E0
S113008022C0000020C000001EC0000011241FBEBA
S1130090CFEFD0E1DEBFCDBF11E0A0E0B1E0E0E7FB
S11300A0F2E000E00BBF02C007900D92A231B1074D
S11300B0D9F721E0A2E1B1E001C01D92A431B20759
S11300C0E1F77CD0D3C09CCF0F931F93CF93DF93E2
S11300D0E82F90E068EE73E093D08B019C01369595
S11300E0279536952795ABE7B4E19DD0EC01D695DD
S11300F0C79589E2E89F812D112482958F7094E63B
S1130100899FE0191124F0E09F01ADECBCEC8BD089
S1130110AC015695479556954795569547959A013E
S1130120220F331FCA01880F991F880F991F880F48
S1130130991F820F931F9F01281B390B80E090E0C9
S113014035C06EE065BBF801FF27E050FF4F6081CA
S11301506BBBE6E6FEE03197F1F700006DE065BBAE
S1130160FE01FF27E050FF4F60816BBBE6E6FEE037
S11301703197F1F700006BE065BBFA01FF27E0500F
S1130180FF4F60816BBBE6E6FEE03197F1F70000BC
S113019067E065BBF901FF27E050FF4F60816BBB4F
S11301A0E6E6FEE03197F1F7000001968D37910500
S11301B044F2DF91CF911F910F9108958AB39FEF7D
S11301C09ABB84B38F6084BB87B3806887BB8BB3CF
S11301D09BBB85B38F6085BB18BA85B5856085BD2B
S11301E085B5886085BD85B5806185BD8DE083BD9D
S11301F087B7826087BF78948091120165DFFCCF56
S113020097FB072E16F4009406D077FD08D01AD079
S113021007FC05D03EF4909581959F4F0895709505
S113022061957F4F0895A29FB001B39FC001A39F22
S1130230700D811D1124911DB29F700D811D11241B
S1130240911D0895AA1BBB1B51E107C0AA1FBB1F28
S1130250A617B70710F0A61BB70B881F991F5A954E
S1130260A9F780959095BC01CD010895F894FFCF2E
S11302703F065B4F666D7C077F6F777C395E7971D3
S10502800880F0
S9030000FC
