S0140000736576656E5365676D656E742E737265631C
S113000045C0000058C0000056C0000054C00000A5
S113001052C0000050C000004EC000004CC00000A0
S11300204AC0000048C0000046C0000044C00000B0
S113003042C0000040C000003EC000003CC00000C0
S11300403AC0000038C0000036C0000034C00000D0
S113005032C0000030C000002EC000002CC00000E0
S11300602AC0000028C0000026C0000024C00000F0
S113007022C0000020C000001EC000001CC0000000
S11300801AC0000018C0000016C0000011241FBED2
S1130090CFEFD0E1DEBFCDBF11E0A0E0B1E0E0EEF4
S11300A0F1E000E00BBF02C007900D92A231B1074E
S11300B0D9F759D093C0A4CF0F931F93CF93DF9355
S11300C0FC0168EE73E063D08B0124E630E0B901F3
S11300D05ED0EB01CF01B9015AD06AE070E057D08D
S11300E020E030E038C0E5E6F0E04EE04083D8019F
S11300F0BB27A050BF4F4C9148BBA6E6BEE011976A
S1130100F1F700004DE04083DE01BB27A050BF4F54
S11301104C9148BBA6E6BEE01197F1F700004BE016
S11301204083DB01BB27A050BF4F4C9148BBA6E6E0
S1130130BEE01197F1F7000047E04083FC01FF2780
S1130140E050FF4F408148BBE6E6FEE03197F1F70F
S113015000002F5F3F4F2A3F31052CF2DF91CF91F2
S11301601F910F9108958FEF87BB8FE080936400F8
S113017010926500C0E0D0E002C0C0E0D0E0CE0143
S11301809BDF2196CF3087E2D807C9F7F6CF97FBDC
S1130190072E16F4009406D077FD08D00BD007FC88
S11301A005D03EF4909581959F4F08957095619583
S11301B07F4F0895AA1BBB1B51E107C0AA1FBB1F99
S11301C0A617B70710F0A61BB70B881F991F5A95DF
S11301D0A9F780959095BC01CD010895F894FFCFBF
S11301E03F065B4F666D7C077F6F777C395E797164
S10501F0088081
S9030000FC
