:1000000045C00000DDC000005EC000005CC0000014
:100010005AC00000ECC0000056C0000054C00000F0
:1000200052C0000050C000004EC000004CC0000094
:100030004AC0000048C0000046C0000044C00000A4
:1000400042C0000040C000003EC000003CC00000B4
:100050003AC0000038C0000036C0000034C00000C4
:1000600032C0000030C000002EC000002CC00000D4
:100070002AC0000028C0000026C0000024C00000E4
:1000800022C0000020C000001EC0000011241FBEBE
:10009000CFEFD0E1DEBFCDBF11E0A0E0B1E0E8ECF2
:1000A000F2E000E00BBF02C007900D92A231B10751
:1000B000D9F721E0A2E1B1E001C01D92A431B2075D
:1000C000E1F7AED0FFC09CCF0F931F93CF93DF9388
:1000D000E82F90E068EE73E0BFD08B019C0136956D
:1000E000279536952795ABE7B4E1C9D0EC01D695B5
:1000F000C79589E2E89F812D112482958F7094E63F
:10010000899FE0191124F0E09F01ADECBCECB7D061
:10011000AC015695479556954795569547959A0142
:10012000220F331FCA01880F991F880F991F880F4C
:10013000991F820F931F9F01281B390B80E090E0CD
:1001400037C0E5E6F0E06EE06083D801BB27A05041
:10015000BF4F6C9168BBA6E6BEE01197F1F70000B7
:100160006DE06083DE01BB27A050BF4F6C9168BB80
:10017000A6E6BEE01197F1F700006BE06083DA01BC
:10018000BB27A050BF4F6C9168BBA6E6BEE011979D
:10019000F1F7000067E06083F901FF27E050FF4FAF
:1001A000608168BBE6E6FEE03197F1F7000001965A
:1001B0008D37910534F2DF91CF911F910F91089502
:1001C0001F920F920FB60F9211248F939F938091DD
:1001D00012019091130101969093130180931201E3
:1001E0009F918F910F900FBE0F901F9018951F92A7
:1001F0000F920FB60F9211248F939F93809112014B
:1002000090911301009729F0019790931301809327
:1002100012019F918F910F900FBE0F901F90189514
:1002200087B38FEF87BBE4E6F0E080818F60808347
:1002300081B381BB82B182B989B7816189BFEAE6A6
:10024000F0E08081836080838AB783608ABF78947E
:100250008091120139DFFCCF97FB072E16F4009432
:1002600006D077FD08D01AD007FC05D03EF4909553
:1002700081959F4F0895709561957F4F0895A29F36
:10028000B001B39FC001A39F700D811D1124911D6A
:10029000B29F700D811D1124911D0895AA1BBB1BD7
:1002A00051E107C0AA1FBB1FA617B70710F0A61B76
:1002B000B70B881F991F5A95A9F780959095BC0197
:0802C000CD010895F894FFCF71
:1002C8003F065B4F666D7C077F6F777C395E79717F
:0202D80008809C
:00000001FF
